:100000000C945A000C9477000C9477000C947700B1
:100010000C9477000C9477000C9477000C94770084
:100020000C9477000C9477000C9477000C94770074
:100030000C9477000C9477000C9477000C94770064
:100040000C9477000C9477000C9477000C94770054
:100050000C9477000C9477000C9477000C94770044
:100060000C9477000C9477000C9477000C94770034
:100070000C9477000C9477000C9477000C94770024
:100080000C9477000C9477000C9477000C94770014
:100090000C9477000C9477000C9477000C94770004
:1000A0000C9477000C9477000C9477000C947700F4
:1000B0000C94770011241FBECFEFD8E0DEBFCDBF78
:1000C00011E0A0E0B1E0E8EEF3E002C005900D928F
:1000D000A630B107D9F722E0A6E0B1E001C01D9239
:1000E000AE30B207E1F70E9479000C94F2010C9453
:1000F00000002F923F924F925F926F927F928F9269
:100100009F92AF92BF92CF92DF92EF92FF920F93A6
:100110001F93CF93DF9300D000D0CDB7DEB7F89414
:100120006A9A3A9A199B40C12FEF37EA61E621504B
:1001300030406040E1F700C00000E0ECF0E080817A
:100140008D7F80831092C5008FE18093C400E1EC25
:10015000F0E080818061808310920B0110920A018F
:10016000429A7298712CAA24A394812C70E020E00A
:1001700030E000E010E0A0ECB0E086EC90E0B12CC4
:100180000F2EF3E06F2EF02D50E040E09924939471
:100190000F2EF5E03F2EF02D0F2EF1E12F2EF02D3A
:1001A000790126C0052F142F23C0A92C7B2D052FE4
:1001B000142F1EC089011CC0A92C7B2D052F142FC4
:1001C00017C0A92C7B2D052F142F12C0A92C7B2D15
:1001D000052F142F0DC0A92C7B2D052F142F08C01F
:1001E0007B2D052F142F04C07B2C7B2D052F142F66
:1001F0002C912223ECF7FC016081209106013091C3
:1002000007012F5F3F4F3093070120930601613FA5
:1002100010F0673F69F7723099F0733049F171114E
:10022000E7CFF801E050FF4F20816213BBCF0F5F93
:100230001F4F06301105E1F672E0052F142FD8CFBD
:1002400066230CF4B2CF98012F5F3F4FE1E0F0E05E
:10025000EC0FFD1FE00FF11F60832230310509F024
:10026000A9CF8B2C762DE52EF42E052F142FC0CF81
:100270006623DCF000FF10C06F70F701E45FFE4FF3
:100280002081622B6083F0E8EF16F10408F4860EFB
:100290002FEFE21AF20A06C0F701E45FFE4F629503
:1002A000607F60830F5F1F4FA3CF673F09F0A0CF30
:1002B00029812F3759F42A8121117ECF012B09F48E
:1002C00068C0A92C7B2D052F142F92CF31E8E3169F
:1002D000F10409F076CF2E3709F078CF2A81211169
:1002E0007ACFECE8F1E02081281511F04298729A5B
:1002F000F999FECF40900A0150900B01F2016092F3
:100300005700E89507B600FCFDCF2CE031E0B201C4
:100310006E5071406B01F90160812E5F3F4FF90112
:10032000EC0DFD1DFC83EB83890101501109F801DF
:10033000108170E0712BEB81FC810B0190925700D2
:10034000E8951124F1E02C383F0729F7F2013092AB
:100350005700E89507B600FCFDCF20925700E895BE
:100360004298729A20910A0130910B0120583F4F18
:1003700030930B0120930A017394F0E27F1230CF87
:10038000AA0C09F031CF7B2CA92C7B2D052F142F23
:100390002FCF429872982FEF37EA61E62150304014
:1003A0006040E1F700C00000E0910801F091090110
:1003B000099580E090E00F900F900F900F90DF91E3
:1003C000CF911F910F91FF90EF90DF90CF90BF9052
:1003D000AF909F908F907F906F905F904F903F90E5
:0803E0002F900895F894FFCF5F
:0603E800F0002102007F7D
:00000001FF
