:1078000059C0000072C0000070C000006EC00000CF
:107810006CC000006AC0000068C0000066C00000C4
:1078200064C0000062C0000060C000005EC00000D4
:107830005CC000005AC0000058C0000056C00000E4
:1078400054C0000052C0000050C000004EC00000F4
:107850004CC000004AC0000048C0000046C0000004
:1078600044C0000042C0000040C000003EC0000014
:107870003CC000003AC0000038C0000036C0000024
:1078800034C0000032C0000030C000002EC0000034
:107890002CC000002AC0000028C0000026C0000044
:1078A00024C0000022C0000020C000001EC0000054
:1078B0001CC0000011241FBECFEFD8E0DEBFCDBF3B
:1078C00011E0A0E0B1E0EAE1FBE702C005900D9213
:1078D000A630B107D9F722E0A6E0B1E001C01D92C1
:1078E000AE30B207E1F702D016C18ACFCF92DF9255
:1078F000EF92FF920F931F93CF93DF9300D0CDB7FA
:10790000DEB7F8946A9A3A9A199BF3C02FEF33EDD9
:1079100080E3215030408040E1F700C000008091BA
:10792000C0008D7F8093C0001092C5008FE18093CE
:10793000C4008091C10080618093C10010920B014E
:1079400010920A01429A729860E030E040E050E004
:1079500080E090E023E0D22E11E005E071E1C72E37
:107960002091C00027FFFCCF2091C600E0910601C6
:10797000F09107013196F0930701E0930601213F52
:1079800010F0273F69F7323099F0333049F1311167
:10799000E7CFFC01E050FF4F7081271719F080E01E
:1079A00090E0DECF019686309105D1F632E0F7CF38
:1079B00027FF02C030E0F3CFFC013196A1E0B0E038
:1079C000AC0FBD1F8A0F9B1FDC012C93E230F10529
:1079D00011F0CF01C5CF60E033E040E050E0DFCFF1
:1079E00027FD15C0FA01E45FFE4F80FF0BC02F702A
:1079F0007081272B20834038510508F4620F4F5FB8
:107A00005F4F03C02295207F20830196A9CF273F97
:107A100009F0A6CF29812F3731F43A81311103C003
:107A2000892B09F45BC04138510521F62E3711F638
:107A30008A818111BFCF80918C01861711F0429805
:107A4000729A42987298F999FECFE0910A01F091EA
:107A50000B01D0925700E89507B600FCFDCF80E0FF
:107A600090E0FC01E45FFE4F7F012081E0910A017C
:107A7000F0910B01E80FF91FD70111967C9130E0CE
:107A8000372B090110935700E8951124282F2370F4
:107A900019F44298729804C0223011F44298729AF4
:107AA000029680389105E9F6E0910A01F0910B0108
:107AB00000935700E89507B600FCFDCFC092570031
:107AC000E8954298729A80910A0190910B01805832
:107AD0009F4F90930B0180930A016CCF429872984C
:107AE000BFEFE3EDF0E3B150E040F040E1F700C05C
:107AF0000000E0910801F0910901099580E090E013
:107B00000F900F90DF91CF911F910F91FF90EF9009
:0A7B1000DF90CF900895F894FFCFA6
:067B1A00F0002102007FD3
:040000030000780081
:00000001FF
