:1078000059C0000072C0000070C000006EC00000CF
:107810006CC000006AC0000068C0000066C00000C4
:1078200064C0000062C0000060C000005EC00000D4
:107830005CC000005AC0000058C0000056C00000E4
:1078400054C0000052C0000050C000004EC00000F4
:107850004CC000004AC0000048C0000046C0000004
:1078600044C0000042C0000040C000003EC0000014
:107870003CC000003AC0000038C0000036C0000024
:1078800034C0000032C0000030C000002EC0000034
:107890002CC000002AC0000028C0000026C0000044
:1078A00024C0000022C0000020C000001EC0000054
:1078B0001CC0000011241FBECFEFD8E0DEBFCDBF3B
:1078C00011E0A0E0B1E0EAEFFAE702C005900D9206
:1078D000A630B107D9F722E0A6E0B1E001C01D92C1
:1078E000AE30B207E1F702D006C18ACFAF92BF92A5
:1078F000CF92DF92FF920F931F93CF93DF9300D02D
:10790000CDB7DEB7F8946A9A3A9A199BE1C02FEF87
:1079100033ED80E3215030408040E1F700C00000AB
:107920008091C0008D7F8093C0001092C5008FE1D0
:107930008093C4008091C10080618093C100109247
:107940000B0110920A01429A729860E030E040E028
:1079500050E080E090E013E001E025E0F22E71E1DC
:107960002091C00027FFFCCF2091C600E0910601C6
:10797000F09107013196F0930701E0930601213F52
:1079800010F0273F69F7323099F0333041F131116F
:10799000E7CFFC01E050FF4FE0812E1719F080E0A7
:1079A00090E0DECF019686309105D1F632E0F7CF38
:1079B00027FF02C030E0F3CFFC013196A1E0B0E038
:1079C000AC0FBD1FA80FB91F2C93E230F10511F0C9
:1079D000CF01C6CF60E033E040E050E0E0CF27FDCC
:1079E00015C0FA01E45FFE4F80FF0BC02F70A0812D
:1079F0002A2B20834038510508F4620F4F5F5F4FF8
:107A000003C02295207F20830196AACF273F09F04B
:107A1000A7CF29812F3731F43A81311103C0892B47
:107A200009F44BC04138510529F62E3719F68A81E1
:107A30008111C0CF80918C01861711F04298729A03
:107A400042987298F999FECFA0910A01B0910B016A
:107A5000FD0110935700E89507B600FCFDCF80E0CC
:107A600090E09C01245F3E4FF90120815C01AA0E49
:107A7000BB1ED18030E03D29F5010901009357007C
:107A8000E895112402968038910559F7FD01F0928E
:107A90005700E89507B600FCFDCF70935700E895B6
:107AA0004298729A80910A0190910B0180589F4FE1
:107AB00090930B0180930A017DCF42987298FFEF5B
:107AC00023ED30E3F15020403040E1F700C00000EA
:107AD000E0910801F0910901099580E090E00F9094
:107AE0000F90DF91CF911F910F91FF90DF90CF907A
:0A7AF000BF90AF900895F894FFCF07
:067AFA00F0007908007F96
:040000030000780081
:00000001FF
